:100000000C941A390C944B390C944B390C944B3991
:100010000C944B390C944B390C944B390C944B3950
:100020000C944B390C944B390C944B390C944B3940
:100030000C944B390C944B390C944B390C944B3930
:100040000C944B390C944B390C944B390C944B3920
:100050000C944B390C944B390C944B390C94535CE5
:100060000C944B390C941D5C0C94F35B0C944B3941
:100070000C944B390C944B390C944B390C944B39F0
:100080000C944B390C944B390C944B390C944B39E0
:100090000C944B390C944B390C944B390C944B39D0
:1000A0000C944B390C944B390C944B390C944B39C0
:1000B0000C944B390C944B390C944B390C944B39B0
:1000C0000C944B390C944B390C944B390C944B39A0
:1000D0000C944B390C944B390C94BD5B0C94935B92
:1000E0000C944B390C9476680C94306E0C948F6C95
:1000F0000C94FB4E0C94DB630C94E5450C94DF41AF
:100100000C946D4E0C9488410C9421660C94204103
:100110000C946B470C946F410C9479470C94B14E3E
:100120000C942F700C9408460C9414650C946B4E30
:100130000C945D630C942B6F0C94C5410C94C259C4
:100140000C94206D0C945E470C9499410C94F74EDE
:100150000C94A8560C9491470C9465470C947D47D9
:100160000C94E56B0C9462470C9410610C9444471A
:100170000C94E1400C9456470C94F4450C94FC57B5
:100180000C9475520C9416460C94BC400C94AA67BF
:100190000C94356B0C9450410C9495470C94754716
:1001A0000C94FE5F0C949D5C0C94184C0C949B6A10
:1001B0000C9487470C9477660C94305F0C94F44E43
:1001C0000C945A470C949F450C9420690C943F471B
:1001D0000C948B470C946F470C9483470C94C46920
:1001E0000C94A5460C9406410C949C450C945846DE
:1001F0000C943F410C9444700C94B14100407A102F
:10020000F35A00A0724E18090010A5D4E80000E8C7
:100210007648170000E40B54020000CA9A3B000025
:1002200000E1F505000080969800000040420F00B4
:100230000000A08601000000102700000000E80375
:10024000000000006400000000000A000000000040
:100250000100000000002C76D888DC674F0823DFFF
:10026000C1DFAE59E1B1B796E5E3E453C63AE651D2
:10027000997696E8E6C28426EB898C9B62ED407CF9
:100280006FFCEFBC9C9F40F2BAA56FA5F490055A95
:100290002AF75C936B6CF9676DC11BFCE0E40D47BA
:1002A000FEF520E6B500D0ED902E030094357705DD
:1002B0000080841E080000204E0A000000C80C3395
:1002C0003333330F986E12831141EF8D2114893B24
:1002D000E65516CFFEE6DB18D1844B381BF77C1DA4
:1002E000901DA4BBE424203284725E228100C9F1F7
:1002F00024ECA1E53D276364696E6F7073757858CF
:100300005B004572724A616E4665624D6172417072
:10031000724D61794A756E4A756C417567536570A7
:100320004F63744E6F76446563001010205F0000C9
:1003300000000000000000000000000000000000BD
:1003400000000000000000000000000000000000AD
:100350000000000000000100010001000FE00100AA
:1003600001000100000000000FE00000000000009C
:10037000000603E40FF81F1C1C2E3C4E388E398EED
:10038000391E3A3C1C7C0FF813E0300000000000DE
:10039000000000000000000000000000000000005D
:1003A000000000000CCC0CCC0CCC000000000000C5
:1003B00000000000308069004B005A003600040045
:1003C0000D8C0B5A125212D6218C00000000000036
:1003D000000000001E1833306360634066C03DBCFF
:1003E000036602C606C60CCC1878000000000000A8
:1003F0000000000003E006600CC00DC006E0000035
:1004000000000000000000000000000000000000EC
:10041000000003E000300030007001C0070007E07A
:1004200000000000000000000000000000000000CC
:10043000000007C000C00380060001C000C00F809C
:1004400000000000000000000000000000000000AC
:100450000000018003801FF0030003003FE007005D
:1004600006000E000E00000000000000000000006A
:1004700000000000000000300070006000000FFE6F
:100480000FFE000000C001C001800000000000005D
:100490000000003000E000E00060006000C000C02C
:1004A00000C000000000000000000000000000008C
:1004B00000000000381C1C3C1C180E301E7803C0C5
:1004C00003C03FF803000700070000000000000021
:1004D000000000F803F80300038007F00CF80E1882
:1004E0000F9803E000F008300FF007C00000000094
:1004F000000000000000000000000000018003C0B8
:1005000003C00180000000000000000000000000A7
:1005100000000010007C00FC01D003A003A003A099
:1005200003A001F800F000400040000000000000BF
:10053000000003C00FF01C381DB8399C399C399C51
:10054000399C1DB81C380FF003C0000000000000EB
:10055000000003C00FF01F381E383F3C3F3C3F3CBB
:100560003F3C1F381FF80FF003C0000000000000E0
:10057000000003C00FF01E381D983F9C3F3C3E7C9E
:100580003CFC1C181FF80FF003C000000000000026
:10059000000003C00FF01C381F983F9C3E7C3F9C1E
:1005A0003F9C1F981C380FF003C0000000000000A3
:1005B000000003C00FF01F781E783D7C3D7C3B7C23
:1005C000383C1F781F780FF003C0000000000000C7
:1005D000000003C00FF01FF81C383DFC3DFC3C7CC4
:1005E0003F3C1F381C780FF003C0000000000000E3
:1005F000000003C00FF01E181CF839FC383C399C71
:10060000399C1D981C380FF003C00000000000004A
:10061000000003C00FF01FF81C183FDC3FBC3F7CFC
:100620003EFC1CF81FF80FF003C0000000000000A3
:10063000000003C00FF01C381BD839DC3C7C3F3C69
:100640003BDC1BD81C380FF003C00000000000008A
:10065000000003E00FF81C3C19DC39CE39CE3C4ECB
:100660003FCE1F9C1C3C0FF803E000000000000080
:10067000000000000FFC0FFC0FFC0FFC0FFC0FFC38
:100680000FFC0FFC0FFC0FFC00000000000000003E
:10069000000003C00FF01C381818300C300C300C60
:1006A000300C18181C380FF003C0000000000000C8
:1006B00000003FFC281428142814281428142FF4B0
:1006C00027E424E424E424E41FFC000000000000EC
:1006D000000000C0014001200210021004080808B8
:1006E0000804100210023FFF00000000000000009C
:1006F00000003FFF1002100208040808040802105E
:1007000002100120014000C00000000000000000B5
:100710000004001C002400C4030404041804100492
:100720000C04030400840064001C000400000000AA
:1007300000003FFC3FFC300C326C32EC33CC318C8F
:1007400033EC366C360C3FFC3FFC00000000000030
:1007500000023FFC3FFC301C302C304C34CC3F8C32
:10076000330C330C300C3FFC3FFC00000000000059
:1007700000000000000000003FFE2806261A236249
:1007800026B2380E30063FFE0000000000000000D8
:1007900000003FFC3FFC300C300C300C300C300CB7
:1007A000300C300C300C3FFC3FFC0000000000001F
:1007B000006001FC0206040008003FF808001FF872
:1007C00008000C000400030401F800000000000011
:1007D0000038007000E000C00180031003E006C094
:1007E000008001800B000A000F800C000000000058
:1007F00000001C6038C018801980133832703660D1
:100800000CCC08FC1018301800000000000000009C
:1008100000000C3038601840188031FC33060206A6
:10082000041C0C7018FC0000000000000000000018
:10083000000000007C180C30382070600CDC0CB814
:10084000F9300366027E040C0C0C0000000000006E
:1008500000000000006000E000E0000000C001C0F7
:1008600007800F000E000E1007F003E000000000EC
:1008700000000190027000000C601DF01F701E70DF
:100880001CE01CE038E038F0000000000000000030
:1008900007C0183030182C684C64400440044824C9
:1008A000482424483398183007C000000000000096
:1008B00003E00C18180C16342632200221C2222222
:1008C00024121414180C0C1803E00000000000009F
:1008D000000007C01830301826C846C44004400441
:1008E0004FE420083018183007C000000000000056
:1008F000000001E003F003F002D0012000C000C0BE
:100900000C080F3800C003300E1800000000000073
:10091000008001C003E007F00FF81FFC3DDE31C688
:1009200021C201C001C001C001C001C001C000005E
:1009300001C001C001C001C001C001C021C231C657
:100940003DDE1FFC0FF807F003E001C0008000004F
:10095000038007000E001E003C007FFEFFFE7FFEAE
:100960003C001E000E000700038000000000000095
:1009700001C000E000700078003C7FFE7FFF7FFE3A
:10098000003C0078007000E001C0000000000000A2
:1009900000080010002000400080018033001A0091
:1009A0000E000C0008000000000000000000000025
:1009B000200038002400230020C020202018200818
:1009C000203020C021002600380020000000000058
:1009D0000000003800381038102C200420042004B7
:1009E0002004100810080C3003C0000000000000B4
:1009F00000001C001C001C083408200420042004F3
:100A00002004100810080C3003C000000000000093
:100A100000001C70329821082108200820081010BE
:100A200010100820044002800300010000000000B4
:100A3000000007F0080813E4241224022402240210
:100A4000241223E21004080807F000000000000050
:100A5000000007E0081017C82424242427C4248495
:100A6000244424241008081007E0000000000000BF
:100A7000000007C0082010102008200820082008C7
:100A80002008101010100C603EF80000000000005C
:100A9000000000000180028002800280030002004A
:100AA0000200060002000280038000000000000037
:100AB000000000000000000000000670098808889F
:100AC000098806700000000000000000000000001F
:100AD0000000000040804080609C50A248A248A2D4
:100AE00044A2429C418040BE408000000000008043
:100AF00001C00140022004100000000000000000BE
:100B000000000000000000000000000000000000E5
:100B100000000000000000000000000000000000D5
:100B2000000000000000000000000000FFFF0000C7
:100B30000000007C00E600C600CE007C0000000043
:100B400000000000000000000000000000000000A5
:100B50000000007C00FE01C20380038003F803F85C
:100B6000070006000FFC07FC00000000000000006A
:100B70000000000000000330033002200660066819
:100B800006E807B004000C000C000C000000000098
:100B900003F806180C080C001FF01FF008001FE0F7
:100BA0000C000C08071803F0000000000000000013
:100BB0000000000000800180038007800F800F800C
:100BC000078003800180008000000000000000001A
:100BD0000000000002000300038003C003E003E004
:100BE00003C00380030002000000000000000000BA
:100BF000000000000000030007800FC01FE03FF06E
:100C000000000000000000000000000000000000E4
:100C100000000000000000003FF01FE00FC0078050
:100C200003000000000000000000000000000000C1
:100C3000000000000000021006300E701EF03FF0B1
:100C40003FF01EF00E7006300210000000000000A1
:100C50007FFC438243C247C24382400247C243C231
:100C600043C243C243C243C240027FFC00000000B3
:100C70000000000008400C600E700F780FFC0FFCA5
:100C80000F780E700C6008400000000000000000AB
:100C90000000000000003084318C339C37BC3FFCE6
:100CA0003FFC37BC339C318C3084000000000000D6
:100CB000000000000000210C318C39CC3DEC3FFCE1
:100CC0003FFC3DEC39CC318C210C000000000000D1
:100CD000000000000CC00CC00CC00CC00CC00CC04C
:100CE0000CC00CC00CC00CC00CC000000000000008
:100CF000000000000FFC0FFC0FFC0FFC0FFC0FFCB2
:100D00000FFC0FFC0FFC0FFC0000000000000000B7
:100D10000000000001E007F807F80FFC0FFC0FFCD3
:100D20000FFC07F807F801E00000000000000000D9
:100D300008000C000E000F000FC00FC00FC00FC046
:100D40000FC00F000E000C000800000000000000A3
:100D500000080038007801E803C803080208027898
:100D600002F802F01E003E003C00000000000000FF
:100D700004201C701C301C38301830183018301803
:100D8000387018701C70084000000000000000005F
:100D900000000180038003800300020002000200C3
:100DA00002000300038003800180000000000000B7
:100DB00006001C183820343A6E7CE77043E001C00E
:100DC00003E007701E382C1C040E180400000300FA
:100DD00007800FC01FE03FF07FF8FFFCFFFC7FF8AB
:100DE0003FF01FE00FC0078003000000000000007C
:100DF000000000000000000006700FF83FFE1C1C01
:100E00000FF803E0000000000000000000000000F8
:100E1000000003E00C18180C13C422222222222204
:100E200023C2220212041A0C0C1803E00000000076
:100E30000000000003FC1FFE1FFF3FFF3FFF3FFFBE
:100E40001FFF0FFF1FF81C0038000000000000000B
:100E50000200010001C000E020E030E0BFFF30E010
:100E600020E000E0018001C003000000000000005D
:100E7000000078004E00B500BAC089B07848263826
:100E80001994066401A2007E00000000000000002A
:100E90000180018001800FF00FF00180018001804E
:100EA000018001800180018000000000000000003E
:100EB00000000000C00078003F001FE00FFC080E9B
:100EC000107023804C00F0000000000000000000C3
:100ED000000000007000500F787C07E0038007E0FE
:100EE000787C500F7000000000000000000000003F
:100EF000008000C000C001E0033007381E1E200340
:100F00001F3C033001A000C000C00080000018306A
:100F1000205F000000000000000000000000000052
:100F200000000000000000000000000000000000C1
:100F300000000000000000000000000000000000B1
:100F400000000000000000000000000000000000A1
:100F50000000000000000000000000000000000091
:100F60000000000000000000000000000000000081
:100F70000000000000000000000000000000000071
:100F80000000000000000000000000000000000061
:100F90000000000000000000000000000000000051
:100FA0000000000000000000000000000000000F32
:100FB00000001F80001F80001F80001F80001F8016
:100FC000001F80001F80001F80001F80001F800006
:100FD0001F80001F80001F80001F80001F80001FD7
:100FE00080001F80001F80001F80001F00001F0066
:100FF000001F00001F00001F00001F00001F000056
:101000000F00000000000000000000000000001FB2
:1010100080003FC0003FC0003FC0003F80001F80F5
:1010200000000000000000000000000000000000C0
:1010300000000000000703800F87C00F87C00F87E4
:10104000C00F87C00F87C00F87C00F03C00F03807A
:101050000F038007038007038007038007038007CF
:1010600003800603000000000000000000000000F4
:101070000000000000000000000000000000000070
:101080000000000000000000000000000000000060
:101090000000000000000000000000000000000050
:1010A0000000000000000000000000000000000040
:1010B0000000000000000000000000000000000030
:1010C000000000000000000000000000000000C060
:1010D0003000E03801E03801E07801E07801C078C4
:1010E00001C07801C07003C07003C07003C0F01F5E
:1010F000FFFF1FFFFF1FFFFF0380E00380E003806F
:10110000E00380E00381E00381E00381E00381E00C
:101110000381C03FFFF87FFFFC7FFFFC3FFFF80724
:1011200001C00701C00F01C00F01C00F01C00F03B4
:10113000C00E03C00E03C00E03C00E03800E03805A
:10114000000000000000000000000000000000009F
:10115000000000070000070000070000060000066E
:1011600000000E00007FE001FFF803FFF807E078C1
:101170000780380780080F00000F00000F00000FE5
:1011800000000F80000F800007C00007F00003F888
:101190000001FF0000FFC0007FE00007F80001F839
:1011A0000000FC00003C00003E00003E00003E004D
:1011B000003E00003E00003C08003C1C00781FE799
:1011C000F81FFFF00FFFE003FF80007C00007000BD
:1011D000007000007000007000007000000000004F
:1011E00000000000000000000000000000000000FF
:1011F000381C00387F00307F8070E38060E380E03F
:10120000E180C0E181C0C181C0C18180C18380C152
:101210008700C18700E18600E38E00E38E00E38C47
:10122000007F18003E38001C38700071F80071FC17
:101230000071DC00E30600C30601C3060187070353
:1012400087070387070307070707070603060E0339
:10125000060C03861C038E1C01FC1801F83800F8EC
:10126000000000000000000000000000000000007E
:10127000000000000000000000000000000000006E
:101280000001F80003FE0007FE000FFF000E07003C
:101290001E07001C07801C07801C07001C07001E7F
:1012A0000F000E0E000F0E00073C0007FC0003F8B5
:1012B0000003E00003C03807E0381FF0381EF038A4
:1012C0001C70383C7838383C38383E38701E7070A6
:1012D0000F70700FF07807E07803C07801E03C07EA
:1012E000F83C0FF81FBF7E1FFE3E0FFC1E03F00EE2
:1012F00000000000000000000000000000000000EE
:1013000000000000000000000000000000000000DD
:1013100000000000000000000000003E000063002C
:101320000061000041000041000041000041000058
:101330004100004100004100004100004100004D1B
:1013400000005D00005D00005D00005D00005D00CC
:10135000005D00005D00005D00005D8001DDC003F8
:10136000DDC0039FC003BFC0039FC003C9C001FF0E
:10137000C000FF80007F00000000000000000000AF
:10138000000000000000000000000000000000005D
:101390000000000700000F00000E00000E00000E0D
:1013A00000000E00001E00001C00003C00003C007D
:1013B0000038000038000078000078000078000055
:1013C000700000700000700000700000700000707D
:1013D00000007000007000007000007000007000DD
:1013E00000700000700000780000780000780000B5
:1013F0007800007800003C00003C00003C00001C2D
:1014000000001E00001E00000E00000E00000E0076
:10141000000F0000070000070000000000000000AF
:1014200000000070000070000070000078000038BC
:1014300000003800003C00001C00001E00001E00E0
:10144000000E00000E00000E00000E00000E000056
:101450000E00000E00000F00000F00000F00000F34
:1014600000000F00000F00000F00000F00000F0031
:10147000000F00000E00000E00000E00000E000025
:101480000E00000E00001E00001E00001E00001CCA
:1014900000003C00003C00003800007800007000B4
:1014A00000700000700000700000000000000000EC
:1014B000000000000000000000000000000000002C
:1014C000000000000000000000000000000000001C
:1014D000000000000000000E00001E00001E0000C2
:1014E0000E00040E080E0E181F8E7E1FCEFE0FFF7C
:1014F000F800FFC0007F80003F0001FFE007FFF819
:101500001FCFFC1F8E3C0F0E3C040E18001E000067
:101510001E00001E0000000000000000000000008F
:1015200000000000000000000000000000000000BB
:1015300000000000000000000000000000000000AB
:10154000000000000000000000000000000000009B
:10155000000000000000000000000000000000008B
:10156000000E00001E00001E00001E00001E0000F5
:101570001E00001E00001E00001E00001E00001EB7
:10158000001FFFFE1FFFFE1FFFFE1FFFFE001E00CD
:10159000001E00001E00001E00001E00001E0000B5
:1015A0001E00001E00001E00001E00001E00000C99
:1015B000000000000000000000000000000000002B
:1015C000000000000000000000000000000000001B
:1015D000000000000000000000000000000000000B
:1015E00000000000000000000000000000000000FB
:1015F00000000000000000000000000000000000EB
:1016000000000000000000000000000000000000DA
:1016100000000000000000000000000000000000CA
:1016200000000000000000000000000000000000BA
:101630000000000800003E00003E00003E00003EAA
:1016400000003E00003C00007C00007800007000BC
:1016500000700000700000E00001C00001C0000048
:10166000000000000000000000000000000000007A
:10167000000000000000000000000000000000006A
:10168000000000000000000000000000000000005A
:10169000000000000000000000000000000000004A
:1016A0000003FFF803FFF803FFF803FFF00000005A
:1016B000000000000000000000000000000000002A
:1016C000000000000000000000000000000000001A
:1016D000000000000000000000000000000000000A
:1016E00000000000000000000000000000000000FA
:1016F00000000000000000000000000000000000EA
:1017000000000000000000000000000000000000D9
:1017100000000000000000000000000000000000C9
:1017200000000000000000000000000000000000B9
:1017300000000000000000000000000000000000A9
:101740000000000000000000000000000000000099
:101750000000000000007E00007E00007E00007E91
:1017600000007E00007E000000000000000000007D
:101770000000000000000000000000000000000069
:101780000000000000000000000000000000000059
:10179000000000380000380000780000780000F8F1
:1017A0000000F00001F00001E00001C00001C000F5
:1017B00003C00007C0000780000F80000F00000F6B
:1017C00000000E00001E00001E00003C00007C0017
:1017D00000780000780000700000F00000F00001C8
:1017E000E00001E00003C00003C0000380000780A8
:1017F000000780000F80000F00001F00001E000087
:101800001C000000000000000000000000000000BC
:101810000000000000000000000000007F00007FCA
:10182000C001FFC003FFE003E3F00781F007807809
:101830000F00780F00381E00381E00381E00381EBA
:10184000003C1C003C1C003C1C003C1C003C1C00E0
:101850003C1C003C1C003C1C003C1C003C1C003C94
:101860001C003C1C003C1C003C1E003C1E00381EA2
:1018700000381E00380F00380F00780F00780781FD
:10188000F007C1F003FFE003FFC001FF80007F000D
:101890000000000000000000000000000000000048
:1018A0000000000000000000000000000E00001E0C
:1018B00000003E00007E0001FE0003FE0007CE0097
:1018C0000F8E000F0E000C0E00000E00000E000028
:1018D0000E00000E00000E00000E00000E00000EB4
:1018E00000000E00000E00000E00000E00000E00B2
:1018F000000E00000E00000E00000E00000E0000A2
:101900000E00000E00000E00000E00000E00000E83
:1019100000000E00001F000FFFF80FFFF80FFFF888
:1019200000000000000000000000000000000000B7
:101930000000000000000000000000007E0001FF29
:101940008003FFC00FFFF01FFFF81FC7F81E01F84C
:101950001C00F80000F800007800007C000078000F
:1019600000780000780000780000F80000F800011E
:10197000F80001F00001E00003E00007C0000FC024
:10198000000F80001F00003E00003E00007C0000B1
:10199000F80001F80003F00003E00007C0001F801A
:1019A000001FFFFC1FFFFE1FFFFE1FFFFE1FFFFEAD
:1019B0000000000000000000000000000000000027
:1019C000000000000000000000000001FF0003FF15
:1019D000C00FFFC01FFFE01F87F01E01F01801F8C5
:1019E0000000F80000F80000F80000F80000F8001F
:1019F00000F80001F00001F00003E0000FC003FF59
:101A0000C003FF0003FFC003FFC00003F80001F89C
:101A10000000F800007C00003C00003C00003C009E
:101A2000003C00003C00003C00003C0000783C0111
:101A3000F83F03F83FFFF01FFFC00FFFC003FF0098
:101A40000000000000000000000000000000000096
:101A500000000000000000000000000001C00007BE
:101A6000E0000FE0000FE0000FE0001FE0003DE0AD
:101A7000003DE00039E00071E00071E00071E0003D
:101A8000F1E001E1E001E1E003C1E00381E0038175
:101A9000E00781E00F01E00F01E01E01E01C01E022
:101AA0001C01E03C01E03C01E07C01F07FFFFF7F96
:101AB000FFFF7FFFFF0001E00001E00001E0000107
:101AC000E00001E00001E00001E00001E00001E0D1
:101AD0000000000000000000000000000000000006
:101AE000000000000000000000000003FFF007FFFE
:101AF000F80FFFF80FFFF80FFFF80F80000F8000BE
:101B00000F80000F80000F80000F80000F80000FFB
:101B100080000F80000F80000FFC000FFF800FFF80
:101B2000C00FFFF0078FF80001F800007C00007C78
:101B300000003C00003C00003C00003E00003C0077
:101B4000003C00003C00003C00007C0000781C01D0
:101B5000F81E03F81FFFF01FFFC00FFF8003FE00F9
:101B60000000000000000000000000000000000075
:101B70000000000000000000000000000000001F46
:101B8000E0007FF800FFF801FFF803F03803C00021
:101B90000780000780000F00000F00000F00001EEC
:101BA00000001E00001E00001E0E001C7FC01CFF57
:101BB000E01FFFF81FFFF81F80F81E003C1C003CD0
:101BC0001C003C1C003C1E003C1E003C1E003C1E39
:101BD000003C1E003C1F003C1F00380F00380F80E7
:101BE000F807C1F807FFF003FFC001FFC0007F0046
:101BF00000000000000000000000000000000000E5
:101C000000000000000000000000001FFFFC1FFF9C
:101C1000FC1FFFFC1FFFFC1FFFFC00003C00003806
:101C20000000780000780000F80000F00000F000EC
:101C300001E00001E00001E00003C00003C0000378
:101C4000C00007C0000780000F80000F00000F00D9
:101C5000000F00001E00001E00001E00003E0000DD
:101C60007C00007C0000780000780000700000F02C
:101C70000000F00001F00001E00003E00003E000DC
:101C80000000000000000000000000000000000054
:101C90000000000000000000000000000000003F05
:101CA0000000FFC003FFF003FFF807E1F80F8078A2
:101CB0000F003C0F003C0F003C0F003C0F003C0F9E
:101CC00080380F807807807803E1F003F1E003FFAC
:101CD000C000FF80007F80007FC001F7F003E3F8C1
:101CE00007C1F80F807C1F003C1E003E1E001E1E18
:101CF000001E1C001E1E001E1E001E1E003E1F0099
:101D00003C1F807C0FF1F803FFF003FFE000FFC0F1
:101D100000000000000000000000000000000000C3
:101D20000000000000000000000000000000007E35
:101D30000001FF8003FFC007FFE00FC3E01F01F0B9
:101D40001E00F81E00F81C00783C00783C00383C6F
:101D500000383C00383C00383C003C3C003C1C0057
:101D60003C1E007C1F81FC1FC7FC0FFFFC07FFB857
:101D700003FE38000038000038000038000078000A
:101D800000780000780000F00001F00001E000039E
:101D9000C0180FC01FFFC01FFF001FFE000FFC0078
:101DA0000000000000000000000000000000000033
:101DB0000000000000000000000000000000000023
:101DC0000000000000000000000000000000000013
:101DD000000000000000003E00007E00007F0000C8
:101DE0007F00007E00003E000000000000000000B8
:101DF00000000000000000000000000000000000E3
:101E000000000000000000000000000000000000D2
:101E10003E00003E00007F00007F00007F00003E8B
:101E200000000000000000000000000000000000B2
:101E300000000000000000000000000000000000A2
:101E40000000000000000000000000000000000092
:101E50000000000000000000000000000000000082
:101E60000000000000000000000000000000000072
:101E70000E00001E00001E00000E00000E000000FC
:101E80000000000000000000000000000000000052
:101E90000000000000000000000000000000000042
:101EA0000000000E00000E00000E00000E00000EEC
:101EB00000000E00001E00001C00003C0000380066
:101EC00000700000700000700000000000000000C2
:101ED0000000000000000000000000000000000002
:101EE00000000000000000000000000000000000F2
:101EF00000000400000400003C00007C0001FC0025
:101F000007F8000FE0001FC0007E0001FE0003F88C
:101F1000001FE0001F80001F00001E00001F800047
:101F20001FC00003F00003FC0000FE00003FC000E3
:101F30001FC0000FF00001FC0000FC00007C00004E
:101F40000C00000400000000000000000000000081
:101F50000000000000000000000000000000000081
:101F60000000000000000000000000000000000071
:101F70000000000000000000000000000000000061
:101F80000000000000000000000000000000001F32
:101F9000FFFC1FFFFC1FFFFC1FFFF80000000000FC
:101FA0000000000000000000000000000000000031
:101FB0000000001FFFFC1FFFFC1FFFFC00000000D3
:101FC0000000000000000000000000000000000011
:101FD0000000000000000000000000000000000001
:101FE00000000000000000000000000000000000F1
:101FF00000000000000000000000000000000000E1
:1020000000000000000000000000000000000000D0
:102010001000001800001F00001F80001FC00007F4
:10202000F00003FC0000FE00003F80001FC0000F16
:10203000F00001FC0000FE00003E00003E00007EBB
:102040000001FC0007F0000FE0001FC000FE0001CF
:10205000FE0003F8001FE0001F80001F80001C002E
:102060000018000000000000000000000000000058
:102070000000000000000000000000000000000060
:102080000000000000000000000000007E0001FFD2
:102090008003FFC007FFE00787F00701F800007822
:1020A0000000780000780000380000380000380098
:1020B00000380000380000380000780000F8000107
:1020C000F8001FE0003FC0003FC0003C00003C00A3
:1020D000003C00003C00003C00003C00003C0000D4
:1020E0003800000000000000000000000000007C3C
:1020F00000007C00007E00007C00007C00003C00B2
:1021000000000000000000000000000000000000CF
:1021100000000000000000000000000000000000BF
:1021200000000000000000000000000000000000AF
:102130000000000000000000007C7C3C7C7C3C60D7
:1021400000046000046000040042000100800300FD
:102150008000000004000060000464002464002487
:102160006000040400000400000000000300800080
:1021700002006042046000046000046000047C7C93
:102180003C00000000000000000000000000000013
:10219000000000000000000000000000000000003F
:1021A0000000000000000000000000003C00003EB5
:1021B00000003E00007E00007E00007E00007E00E9
:1021C000007E00006E0000E70000E70000E700016D
:1021D000C38001C38001C3800181C00381C003812A
:1021E000C00381C00381C00381C00381C00301E03B
:1021F0000700E007FFE007FFF00FFFF00FFFF00E12
:1022000000700E00781C00381C00381C00381C00C0
:10221000381C00381C00383C003C38001C38001CBE
:1022200000000000000000000000000000000000AE
:1022300000000000000000000000001FFC001FFF65
:10224000001FFFC01FFFE01FFFF01C03F01C00F881
:102250001C00F81C00F81C00781C00781C00781C7E
:1022600000F81C00F81C00F01C01E01C03E01FFF3C
:10227000C01FFFC01FFFE01FFFF01C01F81C00F88B
:102280001C007C1C003C1C003E1C003E1C003E1C34
:10229000003E1C003E1C003C1C003C1C003C1C0181
:1022A000F81FFFF81FFFF81FFFC01FFFC01FFE0031
:1022B000000000000000000000000000000000001E
:1022C00000000000000000000000001C1E1E1C1E7C
:1022D0001E1C1E1E1C1E1E1C1E1E1C1E1E1C1E1E28
:1022E0001C1E1E1C1E1E1C1E1E1C1E1E1C1E1E1C1A
:1022F0001E1E1C1E1E1C1E1E1C1E1E1C1E1E1C1E08
:102300001E1C1E1E1C1E1E1C1E1E1E1E3C1E1E3CB7
:102310001F1E3C1F9EFC0FFFF80FFFF807FFF8077A
:10232000FFF003FFF000FFC0007F00001E00001E52
:1023300000001E00001E00001E00001E00001E0007
:10234000000000000000000000000000000000008D
:102350000000000000000000000000003E00003E01
:1023600000007E00007E00007E00007E00007F00F6
:10237000007F0000770000E78000E78000E7800131
:10238000C3C001C3C001C3C00381C00381C00381B6
:10239000C00381C00381E00381E00780E00700F013
:1023A0000700F00F00700E00780E00781E00381E37
:1023B00000381C00381C00381C00381C003C3C0055
:1023C0003C3FFFFC3FFFFC3FFFFC3FFFFC1FFFFCCF
:1023D00000000000000000000000000000000000FD
:1023E000000000000000000000000007FFFC0FFFDD
:1023F000FC0FFFFC0FFFFC0FFFFC0F80000F8000A5
:102400000F80000F80000F80000F80000F80000FF2
:1024100080000F80000F80000F80000F80000FFFF2
:10242000F00FFFF80FFFF80FFFF00F80000F800094
:102430000F80000F80000F80000F80000F80000FC2
:1024400080000F80000F80000F80000F80000F8041
:10245000000FFFF80FFFFC0FFFFC0FFFFC07FFFC56
:10246000000000000000000000000000000000006C
:102470000000001E00001E00001E00007F8001FF03
:10248000C003FFE007FFF807FFF80FFFF81F9EFCEF
:102490001F1E7C1F1E3C1E1E3E1C1E3E1C1E1E1CA4
:1024A0001E1E3C1E1E3C1E1E3C1E1E3C1E1E3C1EB6
:1024B0001E3C1E1E3C1E1E3C1E1E3C1E1E3C1E1EA6
:1024C0001C1E1E1C1E3E1E1E3C1E1E3C1F1E7C1F74
:1024D0009E781FDFF80FFFF807FFF003FFF001FF02
:1024E000C0007F80001E00001E00001E00001E00B5
:1024F00000000000000000000000000000000000DC
:10250000000000000000000000000007FFFC0FFFBB
:10251000FE0FFFFE0FFFFE0FFFFC0F80000F80007D
:102520000F80000F80000F80000F80000F80000FD1
:1025300080000F80000F80000F80000F80000F8050
:10254000000F80000F80000F80000F80000F8000C0
:102550000F80000F80000F80000F80000F80000FA1
:1025600080000F80000F80000F80000F80000F8020
:10257000000F80000F80000F80000F80000F800090
:10258000000000000000000000000000000000004B
:1025900000000000000000000000001C001E1C00E5
:1025A0001E1C001E1C001E1C001E1C001E1C001EEB
:1025B0001C001E1C001E1C001E1C001E1C001E1CDD
:1025C000001E1C001E1C001E1C001E1FFFFE1FFF05
:1025D000FE1FFFFE1FFFFE1FFFFE1C001E1C001E35
:1025E0001C001E1C001E1C001E1C001E1C001E1CAD
:1025F000001E1C001E1C001E1C001E1C001E1C00B9
:102600001E1C001E1C001E1C001E1C001E1C001E8A
:1026100000000000000000000000000000000000BA
:102620000000000000000000000000003C00003C32
:1026300000003C00003C00003C00003C00003C006E
:10264000003C00003C00003C00003C00003C00005E
:102650003C00003C00003C00003C00003C00003C12
:1026600000003C00003C00003C00003C00003C003E
:10267000003C00003C00003C00003C00003C00002E
:102680003C00003C00003C00003C00003C00003CE2
:1026900000003C00003C00003C00003C00003C000E
:1026A000000000000000000000000000000000002A
:1026B00000000000000000000000001FFFF81FFFE6
:1026C000F81FFFF81FFFF81FFFF8000000000000D0
:1026D00000000000000000000000000000000000FA
:1026E000000000000000000000000000000007FFE4
:1026F000E007FFE007FFE007FFE000000000000048
:1027000000000000000000000000000000000000C9
:1027100000000000000000000000000000000000B9
:10272000003FFFFC3FFFFC3FFFFC3FFFFC3FFFFC87
:102730000000000000000000000000000000000099
:1027400000000000000000000000003C003E3C00D3
:102750003E3C007C3C00F83C01F83C01F03C03E0CE
:102760003C03C03C07C03C0F803C0F003C1F003CBA
:102770003E003C7E003C7C003CF0003DF0003DF023
:10278000003FF0003DF0003DF0003C78003C7C0054
:102790003C7E003C3E003C1F003C1F003C0FC03C08
:1027A0000FC03C07C03C03E03C01F03C01F03C00A2
:1027B000F83C00FC3C007C3C003E3C003F3C001FE1
:1027C0000000000000000000000000000000000009
:1027D0000000000000000000000000001E00003E9D
:1027E00000003E00003E00007E00007F00007700F9
:1027F00000770000778000738000738000E3C000E2
:10280000E3C000E1C001E1C001C1C001C1C003C11A
:10281000C00381E00381E00380E00380F00380F0E7
:102820000380700700780700780700780F00380EE3
:1028300000380E00381E00381C003C1C003C1C00F8
:102840001C1C001E1C001E3C000E3C000E38000E1E
:102850000000000000000000000000000000000078
:1028600000000000000000000000003C00383E00B6
:102870007C7E007C7F00FE7F00FE7F00FE7F00FEEE
:102880007F81FE7F81FE7B81DE7B81DE7B81DE7B43
:1028900081DE7B81DE7B81DE7BC3DE7BC3DE7BC3AF
:1028A0009E79C39E79C39E79E79E79E71E79E71EDC
:1028B00078E71E78FF1E78FE1E78FE1E787E1E7852
:1028C0007E1E787E1E787E1E787E1E787E1E787E26
:1028D0001E787C1E787C1E783C1E783C1E78381C46
:1028E00000000000000000000000000000000000E8
:1028F00000000000000000000000003C000E7E0010
:102900000F7E000F7F000F7F800F7F800F7F800F73
:102910007F800F7BC00F7BE00F7BE00F79F00F789B
:10292000F00F78F00F78700F78780F78780F787C48
:102930000F783E0F783E0F781E0F780E0F780F0F2E
:10294000780F0F780F8F78078F7807CF7803CF78BD
:1029500003CF7801CF7801FF7801FF7801FF78007D
:10296000FF78007F78007F78003F78003F78001E76
:102970000000000000000000000000000000000057
:102980000000000000000000000000007F0000FFC9
:102990008003FFC003FFE007C3F00781F00F00785A
:1029A0001E00381E00381C00381C00381C00381C63
:1029B000003C1C001C3C001C38001C38001C38006B
:1029C0001C38001C38001C38001C38001C38001C47
:1029D00038001C3C001C3C001C1C003C1C00381C2B
:1029E00000381C00381C00381E00781E00780F814B
:1029F000F007C3E007FFE003FFC001FF8000FE0017
:102A000000000000000000000000000000000000C6
:102A100000000000000000000000001FFFFC3FFF5E
:102A2000FE3FFFFE3FFFFE3FFFFE3C001E3C001E40
:102A30003C001E3C001E3C001E3C001E3C001E3C98
:102A4000001E3C001E3C001E3C001E3C001E3C00C4
:102A50001E3C001E3C001E3C001E3C001E3C001E96
:102A60003C001E3C001E3C001E3C001E3C001E3C68
:102A7000001E3C001E3C001E3C001E3C001E3C0094
:102A80001E3C001E3C001E3C001E3C001E3C001E66
:102A90000000000000000000000000000000000036
:102AA0000000000000000000000000000000000026
:102AB0000000000000000000000000000000000016
:102AC0000000000000000000001E0200018600302F
:102AD00032003C000002040000F000000000000092
:102AE00000003E0400421C0001F0001808000C1811
:102AF0000002300000000000000C0200218E0000E7
:102B00007A007800000208000190000070000000C8
:102B100000000000000000000000000000000000B5
:102B200000000000000000000000000000000000A5
:102B300000000000000000000000001FF8003FFF40
:102B4000803FFFC03FFFF03FFFF83C03F83C00FC34
:102B50003C007C3C003E3C003E3C003E3C003E3C99
:102B6000003E3C003E3C003E3C003E3C003C3C0005
:102B70007C3C01F83C03F83FFFF03FFFC03FFFC043
:102B80003FFF003C00003C00003C00003C00003CDB
:102B900000003C00003C00003C00003C00003C0009
:102BA000003C00003C00003C00003C00003C0000F9
:102BB0000000000000000000000000000000000015
:102BC00000000000000000000000001FFFFC1FFFCD
:102BD000FC1FFFFC1FFFFC1FFFFC1F80000F80007D
:102BE00007C00007E00003F00001F00001F800005A
:102BF0007C00007E00007E00001F00000F80000FA0
:102C0000C0000FC0000F80000F80003E00003E009B
:102C1000007E00007C0000F80001F00003F00003DB
:102C2000E00003E0000F80000F80001F80001F0005
:102C3000003FFFF83FFFFC3FFFFE3FFFFE1FFFFC92
:102C40000000000000000000000000000000000084
:102C500000000000000000000000003FFFFF7FFFB9
:102C6000FF7FFFFF7FFFFF7FFFFF003E00003E0072
:102C7000003E00003E00003E00003E00003E00001E
:102C80003E00003E00003E00003E00003E00003ED0
:102C900000003E00003E00003E00003E00003E00FE
:102CA000003E00003E00003E00003E00003E0000EE
:102CB0003E00003E00003E00003E00003E00003EA0
:102CC00000003E00003E00003E00003E00001E00EE
:102CD00000000000000000000000000000000000F4
:102CE0000000000000000000000000007F8000FFE6
:102CF000C001FFE003FFF007E1F80780F80F00389C
:102D00000F003C1E003C1C001C1C001E1C001E1C56
:102D1000000E1C000E1C000E3C000E3C000E3C7F02
:102D20000E3C7F8E3C7F8E3C7F8E3C000E3C000E26
:102D30003C000E3C000E1C000E1C000E1C001E1C55
:102D4000001C1C003C1E00381E00380F00380F808D
:102D5000F807E1F007FFF003FFC001FFC0007F00AC
:102D60000000000000000000000000000000000063
:102D70000000000000000000000000007F0000FFD5
:102D8000C001FFC003FFF007FFF007FFF80FC1F815
:102D90000F81F81F80F81F007C1F007C1F003C1E65
:102DA000003C1E003E1E003E3E003E3C003E3C00FD
:102DB0003E3C003E3C003E3C003E3E003E3E003E6F
:102DC0001E003C1E003C1E003C1E003C1F00781FE5
:102DD00080780F80F80781F007C1F003C1E03FE37E
:102DE000FE3FE3FE3FE3FE3FE3FE3FE3FE3FC1FE67
:102DF00000000000000000000000000000000000D3
:102E000000000000000000000000000001F00003CE
:102E1000F80E07FC1F8FFE398E0E318E06319C0096
:102E20001F9C001F9C000038000038000038000084
:102E30003800003800003800003800003800003842
:102E400000001C00001C00001E06000E0E000FBE3D
:102E5000000FFC0007F80001F80000C000000000AF
:102E60000000000000000000000000000000000062
:102E70000000000000000000000000000000000052
:102E80000000000000000000000000000000000042
:102E900000000000000000000000000000001C0016
:102EA0000E1E001F1E003E1F003C1F003C0F8038FE
:102EB00007807807807803C0F003E1F003E1E001C8
:102EC000F1C000F3C000F3C0007F80007F80007F6E
:102ED00080003F00003E00003F00007F00007F8038
:102EE000007F8000F3C000F3C001F1C003E1E00304
:102EF000C1F003C1F00780F80780780F80780F00D9
:102F00003C1F003C1E003E1C001F3C001F3C000FED
:102F100000000000000000000000000000000000B1
:102F2000000000000000000000000078001C7C0091
:102F30003C3C003C3C00381C00781E00781F00F828
:102F40001F00F00F00F00F81E00781E00781C00350
:102F5000C3C003C3C003C3C001E78001E78001FF12
:102F60000000FF00007E00007E00007E00007E006A
:102F7000007C00003C00003C00003C00003C0000E5
:102F80003C00003C00003C00003C00003C00003CD9
:102F900000003C00003C00003C00003C00003C0005
:102FA0000000000000000000000000000000000021
:102FB00000000000000000000000000FFFFC0FFFF9
:102FC000FC0FFFFC0FFFFC0FFFFC00003C00007833
:102FD0000000780000F80001F00001F00001E000BE
:102FE00003C00003C00007C0000F80000F80000F67
:102FF00000001E00001E00003E00007C00007C005F
:1030000000780000F00000F00001F00003E0000391
:10301000E00003C0000780000780000F80000F0061
:10302000001FFFFC1FFFFE1FFFFE1FFFFE0FFFFE26
:103030000000000000000000000000000000000090
:103040000000000FF8000FF8000FF8000F00000F4D
:1030500000000F00000F00000F00000F00000F0025
:10306000000F00000F00000F00000F00000F000015
:103070000F00000F00000F00000F00000F00000FF6
:1030800000000F00000F00000F00000F00000F00F5
:10309000000F00000F00000F00000F00000F0000E5
:1030A0000F00000F00000F00000F00000F00000FC6
:1030B00000000F00000F00000FF8000FF8000FF8DD
:1030C0000000000000000000000000000000000000
:1030D00000000000000000000000000000001E00D2
:1030E000000F00000F000007800007800003800031
:1030F00003800003C00003E00001E00001E00000E5
:10310000F00000F000007000007800007800007C03
:1031100000003C00001E00001E00000E00000E001B
:10312000000F00000F000007800007800003C000B0
:1031300003C00001C00001E00001E00001E0000068
:10314000F00000F800007800003800003800003877
:10315000000000000000000000000000000000006F
:10316000000007FE0007FE0003FE00003E00003ED8
:1031700000003E00003E00003E00003E00003E0019
:10318000003E00003E00003E00003E00003E000009
:103190003E00003E00003E00003E00003E00003EBB
:1031A00000003E00003E00003E00003E00003E00E9
:1031B000003E00003E00003E00003E00003E0000D9
:1031C0003E00003E00003E00003E00003E00003E8B
:1031D00000003E00003E0007FE0007FE0007FC0066
:1031E00000000000000000000000000000000000DF
:1031F000000000000000000000000070700070700F
:1032000000707004707588707C88707C98707CB0D9
:103210007075A070772070705E7FF0D27FF0937F22
:10322000F1137FF1127FF21E7072007070007070E7
:10323000007070007070007070007070007070002E
:1032400070700070700000000000000000000000BE
:10325000000000000000000000000000000000006E
:10326000000000000000000000000000000000005E
:10327000000000000000000000000000000000004E
:10328000000000000000000000000000000000003E
:10329000000000000000000000000000000000002E
:1032A000000000000000000000000000000000001E
:1032B000000000000000000000000000000000000E
:1032C00000000000000000000000000000000000FE
:1032D00000000000000000000000000000000000EE
:1032E00000000000000000000000000000000000DE
:1032F000007FFFFFFFFFFFFFFFFFFFFFFF0000005A
:1033000000000000000000000000000000000000BD
:1033100000000000000000000000000000000000AD
:10332000000000000000000000000000000000009D
:10333000000000000000000000000000000000008D
:10334000000000000000000000000000000000007D
:10335000000000000000000000000000000000006D
:10336000000000000000000000000000000000005D
:10337000000000000000000000000000000000004D
:10338000000000000000000000000000000000003D
:10339000000000000000000000000000000000002D
:1033A000000000000000000000000000000000001D
:1033B000000000000000000000000000000000000D
:1033C00000000000000000F81803FC3803FE380F6E
:1033D000FE380F8F381F0F381E03B81C03B81C01AE
:1033E000F81C01F81C01F03C01F03C01F03C01F03C
:1033F0003C01F03C01E03C01E03C01E03C01C03C10
:1034000001C01C01C01C01E01C03E01C03E01F07FD
:10341000E01F8EF00FFE7E07FE7E03FC3E03F03EB3
:10342000000000000000000000000000000000009C
:103430000000000000000000007E0003FFC007FF46
:10344000C00FFFE01F81F01F01F01E01F01C00F80B
:103450003C00F83C00F83C00F83C00F83C00F83C2C
:1034600001F03C01E03C01E03C0FC03C7F003C7FB0
:10347000C03C7FF03C7FF83C01F83C007C3C003CC9
:103480003C003C3C003E3C003E3C003E3C003E3CA0
:10349000003E3C003E3C003E3C003C3C003C3E00CC
:1034A000F83F81F83FFFF83FFFE03FFFC03CFF805F
:1034B0003C00003C00003C00003C00003C000000E0
:1034C00000000000000000000000000000000000FC
:1034D00000000000000000000000000000001E00CE
:1034E000001E00001E00001E00001E001C1E1C3CD2
:1034F0001E3E3C1E3E3C1E1E3C1E1E3C1E1E3C1E16
:103500001E3C1E1E3C1E1F3C1E1F3C1E1F3C1E1F41
:103510003C1E1F3C1E1F3C1E1F3C1E1F3C1E1E3C13
:103520001E1E3C1E1E1E1E3E1E1E3E1F1E3C1FFF5C
:10353000FC1FFFF80FFFF807FFF003FFE003FFC0D9
:10354000003E00001E00001E00001E00001E0000C5
:103550000000000000000000003F0000FFF001FF3D
:10356000F803FFF803C03803C00003800003C00065
:1035700003C00003E00001F00001F80000FC0000BF
:103580007E0000FF0001FF8003EFC007C7E0078354
:10359000F00F01F81F00F81E00781C00381C003CDA
:1035A0001C003C3C003C3C003C3C003C3C003C3CA7
:1035B000003C3C003C3C003C1C00381E00381F0016
:1035C000F81F80F81F81F007FFE003FFC003FF80B2
:1035D00000380000000000000000000000000000B3
:1035E00000000000000000000000000000000000DB
:1035F00000000000000000000000000000000000CB
:10360000000000000000003F80007FE001FFF003A9
:10361000FFF803F0F803C038078008078000078030
:103620000007800003800003C00003FFC001FFC04B
:1036300000FFC003FFC003F00003C00007800007C5
:1036400080000F00000F00000F00000F80000780B7
:103650003807E07803FFF803FFF801FFF0007FC0B0
:10366000000000000000000000000000000000005A
:10367000000000000000000000000000000000004A
:1036800000000000000000000000001C00001C0002
:10369000001C00001C00007F0000FFC003FFE007CB
:1036A000FFF80FDFF80F9C781E1C3C1C1C3C1C1CF8
:1036B0001E1C1C0E1C1C0E381C0E381C0E381C0F39
:1036C000381C0F381C0F381C0F381C0E381C0E38D5
:1036D0001C0E3C1C0E1C1C1E1C1C1C1C1C3C1F1C01
:1036E000780F9CF80FFFF803FFE003FFC000FF8096
:1036F000001C00001C00001C00001C00000000005A
:1037000000000000000000000000000000000000B9
:1037100000000000000000000000000000000000A9
:1037200000000000000038000C7C003E7C003E3EA3
:10373000003E3E003E1E003E1F003C1F003C1F009E
:103740003C0F803C0F803C0F8078078078078078A2
:1037500007C0F803C0F803C1F003C1F003E1E003C0
:10376000E3C003E3C001F7C001FF8001FF8001FF58
:103770000000FE0000FE0000FC0000F80000F80061
:1037800000F00000F00000F00000F00000F0000089
:103790000000000000000000000000000000000029
:1037A0000000000000000000000000000000000019
:1037B000000000000000000F801C1FC01E7FE01EE4
:1037C000FFF01EFFF81FF1F81F80781F80781F8020
:1037D000381E00381E00381E00381E003C1E003CFB
:1037E0001E003C1E003C1E003C1E003C1E003C1EF9
:1037F000003C1E003C1E003C1E003C1E003C1E0007
:103800003C1E003C1E003C1E003C1E003C1E003CBA
:103810000C003C00003C00003C00003C00003C0070
:103820000000000000000000000000000000000098
:103830000000000000000000000000000000000088
:10384000000000000000003800007C00007C000048
:103850007C00007C00007C00007C00007C00007C80
:1038600000007C00007C00007C00007C00007C00EC
:10387000007C00007C00007C00007C00007C0000DC
:103880007C00007C00007C00007C00007C00003E8E
:1038900000003E10003FF8001FF8000FF8000FF086
:1038A0000000000000000000000000000000000018
:1038B0000000000000000000001FC000FFC003FF68
:1038C000C003FFC007C0000F80000F80001F000072
:1038D0001F00001E00001E00001E00001E00001F32
:1038E00000001F00001F800007E00007FF8003FFAB
:1038F000C0007FC000FFC003FF8007E0000F800012
:103900001F80001F00001E00001E00003C00003C45
:1039100000003C00003C00003C00003C00001E0099
:10392000001F00001F80000FF80007FE0003FF804B
:10393000007FC0001FE00003E00001F00000F00085
:103940000000000000000000000000000000000077
:103950000000000000000000000000000000000067
:103960000000000000000E00381F003C1F007C1FFC
:1039700001F81F01F81F01F01F07C01F07C01F0F2C
:10398000C01F1F001F1E001F3E001F7C001F78006D
:103990001FF8001F7C001F7C001F7E001F3E001FC1
:1039A0001F001F0F801F0FC01F07C01F07E01F0150
:1039B000F01F01F81F01F81F007C1F007E1F003E52
:1039C00000000000000000000000000000000000F7
:1039D00000000000000000000780001FE0001FF052
:1039E000001FF00000F00000700000780000780078
:1039F000007800007C00003C00003C00003E00001D
:103A00003E00003E00007E00007E00007E00007F41
:103A10000000FF0000FF0000FF8001E78001E78059
:103A200003C7C003C3C003C3C00383C00381C0076F
:103A300081C00781E00F81E00F01E00F01F01F005E
:103A4000F01E00F81E00F81C007F3C007F3C003F89
:103A50000000040000000000000000000000000062
:103A60000000000000000000000000000000000056
:103A70000000000000000000000000000000000046
:103A80000000000000003C00F03C00F03C00F03C76
:103A900000F03C00F03C00F03C00F03C00F03C004A
:103AA000F03C00F03C00F03C00F03C00F03C00F04A
:103AB0003C00F03C00F03C00F03C00F03C00F03CEE
:103AC00000F03C01F03C01F03C03F03E07F03F0FFA
:103AD000F83FFE7F3FFE7F3FF83F3DF03F3C000C4C
:103AE0003C00003C00003C00003C00003C000000AA
:103AF00000000000000000000000000000000000C6
:103B000000000000000000000000000000000000B5
:103B10000000000000001C00383C00783C00781CCD
:103B200000781C00781E00781E00781E00781F00A8
:103B3000F80F00F00F00F00F80F00781E00781E040
:103B40000781E00381C00381C003C1C003C3C00378
:103B5000C3C001E78001E78001EF0000FF0000FE25
:103B60000000FE00007E00007C00007C0000780069
:103B70000000000000000000000000000000000045
:103B80000000000000000000000000000000000035
:103B90000000000000000000000000000000000025
:103BA000000000000000007F0000FFC001FFC00314
:103BB000FFF007E3F80781F80F00780F00381F00C7
:103BC000381E003C1E003C1C003C1C003C1C003C01
:103BD0001C003C1C003C1C003C1C003C1C003C1E0F
:103BE000003C1E003C1E00381F00380F00780F807C
:103BF000F807C1F007FFF003FFC001FFC0007F001E
:103C000000000000000000000000000000000000B4
:103C100000000000000000000000000000000000A4
:103C20000000000000000000000000000000000094
:103C30000000000000001FFFF83FFFFC3FFFFC3FBB
:103C4000FFFC3FFFFC0381C00381C00381C00381EF
:103C5000C00381C00381C00381C00381C00381C050
:103C60000381C00381C00781C00781C00701C0076D
:103C700001C00701C00701C00701C00F01E00F012B
:103C8000E00E01E00E01F21E00FE1E00FE1C007E92
:103C90000000000000000000000000000000000024
:103CA0000000000000000000000000000000000014
:103CB0000000000000000000000000000000000004
:103CC00000000000000000000000000000000000F4
:103CD00000000000000000000000000000000000E4
:103CE00000007C00007C00007C00007C00000000E4
:103CF00000000000000000000000000000000000C4
:103D00000000000000000000000000000000007C37
:103D100000007C00007C00007C00007C000078003B
:103D200000F00000F00001E00003C0000380000389
:103D30000000000000000000000000000000000083
:103D40000000000000000000000000000000000073
:103D5000000000000000003F00007FC000FFE00303
:103D6000FFF003F1F803C0F80780780F803C0F00E4
:103D70003C0F003C1F003E1E003E1E003E1E001E6B
:103D80001E001E1E001E1E001E1E003E1E003E1EA9
:103D9000003C1E003C1E003C1E003C1F00781FC162
:103DA000F81FFFF81FFFF01EFFC01E7FC01E1E0081
:103DB0001E00001E00001E00001E00001E00001E4F
:103DC00000000000000000000000000000000000F3
:103DD00000000000000000000000000000000000E3
:103DE000000000000000000FFC007FFE01FFFE034A
:103DF000FFFE07FFFE0FC3C01F01C01F01E01E0032
:103E0000E01C00F01C00701C00783C00783C00783E
:103E10003C00383C00383C00383C00383C00383C22
:103E200000383C00781C00781C00781E00F01F0150
:103E3000F01F81E00F83E007FFC003FF8003FF0056
:103E40000000000000000000000000000000000072
:103E50000000000000000000000000000000000062
:103E60000000000000000000000000000000000052
:103E70000000000000000000001FFFF81FFFF81FF7
:103E8000FFF81FFFF800780000700000700000705D
:103E900000007000007000007000007000007000F2
:103EA00000700000700000700000700000700000E2
:103EB0007000007000007800007800007800007C3E
:103EC00000007E40007FC0003FC0001FC0000FC048
:103ED00000000000000000000000000000000000E2
:103EE0000000000000000000003E0001FFC003FFD2
:103EF000E003FFE00381F00780F80780780F0038C7
:103F00000F00380E00381E003C1E003C1E003C1CFA
:103F1000003C1C003C1C003C1C003C1E003C1FFFE5
:103F2000FC1FFFFC1FFFFC1FFFFC1C003C1C003C97
:103F30001C003C1C003C1C003C1E003C1E003C1EA7
:103F400000381E00380F00380F00780F8078078087
:103F5000F003C1F003F3E001FFC000FFC0007F00E9
:103F60000000000000000000000000000000000051
:103F70000000000000000000000000000000000041
:103F80000000000000000000000000000000000031
:103F90000000000000000300300780780780780FE1
:103FA00000380F00380F00381E00381E003C1E1C61
:103FB0003C1E1E3C1E1E3C1E1E3C1C1E3C1C1E3C71
:103FC0001C1E1C1C1E1C1C1E1C1C1E3C1C1E3C1CE7
:103FD0001E3C1E1E3C1E1E3C1E3E3C1E3E3C1FFF49
:103FE000780FFFF80FFFF807F7F807F3F803F3F07F
:103FF00000000000000000000000000000000000C1
:1040000000000000000000000000000000000000B0
:1040100000000000000000000000000000000000A0
:10402000000000000000001F80007FC000FFE003D0
:10403000FFF003F07003C0300780000780000780A6
:10404000000F80000F80000F00000F00000F000025
:104050000F00000F80000F8000078000078000071E
:10406000C00003E00003F80001FE0000FFC0003FB5
:10407000E0000FF00001F000007800007800007010
:104080000000F00000F00000E00001C00001C000EE
:104090000000000000000000000000000000000020
:1040A0000000000000000000000000000000000010
:1040B0000000000000000000003F00383F80383F53
:1040C000807803C0F003C0F003E1E001E1C001F13A
:1040D000C000F3C000F780007780007F00007E0002
:1040E000007E00007E00007E00007E0000EF0001E8
:1040F000EF0001EF0003C7800387C00787C00F836D
:10410000C00F01C01F01E01E01FE1C00FE3C007E2E
:10411000000000000000000000000000000000009F
:10412000000000000000000000000000000000008F
:10413000000000000000000000000000000000007F
:104140000000000000000C00381E00381E00381E61
:1041500000381E003C1E003C1E003C1E003C1E00A1
:104160003C1E003C1E003C1E003C1E003C1E003C51
:104170001E003C1E003C1E003C1E003C1E003C1E5F
:10418000003C1E003C1F00380F00380F00780F80E5
:10419000F80F81F807C1F003FFE003FFC001FF80C3
:1041A000003C0000000000000000000000000000D3
:1041B00000000000000000000FFFF80FFFF80FFFE5
:1041C000F80FFFF80003E00007C0000FC0001F0059
:1041D000001E00003E00007C0000780000F000019E
:1041E000F00003F00003E00003C00007C0000780F8
:1041F000000F80000F80000F80001F80001F000054
:104200001F00001F00001F80001F80000F80000F94
:1042100080000FC00003FC0003FF8001FFE0007F6F
:10422000F8000FF80001F800003C00003C00003CE2
:104230000000380000780000780000F80001F0006D
:1042400001E0000000000000000FF0003FF0003F20
:1042500000003E00007E00007E00007E00007E0028
:10426000007E00007E00007E00007E00007E0000D8
:104270007E00007C00007C0001F80007F0001FA019
:10428000001FC0000FE00005F000007800007C0077
:10429000007C00007E00007E00007E00007E0000AA
:1042A0007E00007E00007E00007E00007E00007E1A
:1042B00000003E00003E00001FE0000FF0000FF085
:1042C00000000000000000000000000000000000EE
:1042D0000000003E00003E00003E00003E00003EA8
:1042E00000003E00003E00003E00003E00003E0098
:1042F000003E00003E00003E00003E00003E000088
:104300003E00003E00003E00003E00003E00003E39
:1043100000003E00003E00003E00003E00003E0067
:10432000003E00003E00003E00003E00003E000057
:104330003E00003E00003E00003E00003E00003E09
:1043400000003E00003E00003E00003E00003E0037
:10435000003E00003E00003E00003E00003E000027
:104360003E0000000000000007F00007FE00007E95
:1043700000007E00003E00003E00003E00003E00C7
:10438000003E00003E00003E00003E00003E0000F7
:104390003E00001E00001E00000F80000FE000071E
:1043A000F00001F80003F80007D0000F80001F00A4
:1043B000001E00003E00003E00003E00003E0000E7
:1043C0003E00003E00003E00003E00003E00003E79
:1043D00000007E00007E0001FE0001F80007F800EA
:1043E00007E00000000000000000000000000000E6
:1043F00000000000000000000000000000000000BD
:1044000000000000000000000000000000000000AC
:10441000000000000000000000000000000000009C
:10442000000003800007E0041FF00E1FF80E1FFCC1
:104430000E3C3E1E3C1E1C380F3C380FF83807F867
:104440001003F00000000000000000000000000069
:10445000000000000000000000000000000000005C
:10446000000000000000000000000000000000004C
:10447000000000000000000000000000000000003C
:1044800000000810205F0000000000000000000095
:10449000000000000000101010101010101010107C
:1044A0000000101000002424242424240000000014
:1044B000000000000000242424247E7E24247E7E2C
:1044C00024242424000010103C3C5050383814148C
:1044D0007878101000000000626264640808101010
:1044E00026264646000030304848484830304A4A80
:1044F00044443A3A00001010101010100000000060
:1045000000000000000010102020404040404040CB
:1045100020201010000010100808040404040404F3
:104520000808101000001010545438381010383893
:104530005454101000000000101010107C7C10105B
:10454000101000000000000000000000000008083B
:104550000808101000000000000000007E7E00002F
:10456000000000000000000000000000000000004B
:1045700000001010000000000202040408081010DF
:104580002020404000003C3C424246465A5A62626B
:1045900042423C3C000008081818080808080808AF
:1045A00008081C1C00003C3C424202021C1C20204B
:1045B00040407E7E00007E7E020204041C1C02023B
:1045C00042423C3C000004040C0C141424247E7E63
:1045D0000404040400007E7E40407C7C020202024F
:1045E00042423C3C00001E1E202040407C7C424257
:1045F00042423C3C00007E7E020204040808101087
:104600001010101000003C3C424242423C3C4242EE
:1046100042423C3C00003C3C424242423E3E02029E
:104620000404787800000000000010100000101052
:10463000000000000000000000000808000008085A
:1046400008081000000004040808101020201010B2
:10465000080804040000000000007E7E00007E7E4A
:1046600000000000000020201010080804040808C2
:10467000101020200000202040400000000000001A
:104680000000000000003C3C42424A4A56564C4C56
:1046900040403E3E000018182424424242427E7EA2
:1046A0004242424200007C7C424242427C7C424286
:1046B00042427C7C00003C3C424240404040404002
:1046C00042423C3C00007C7C4242424242424242E6
:1046D00042427C7C00007E7E404040407C7C4040EA
:1046E00040407E7E00007E7E404040407C7C4040DA
:1046F0004040404000003E3E40404040404E4E4220
:1047000042423E3E00004242424242427E7E42429D
:1047100042424242000038381010101010101010A1
:1047200010103838000002020202020202020202E5
:1047300042423C3C00004242444448487070484871
:1047400044444242000040404040404040404040DD
:1047500040407E7E0000424266665A5A5A5A4242A1
:104760004242424200004242626252525A5A4A4A0D
:104770004646424200003C3C4242424242424242A1
:1047800042423C3C00007C7C424242427C7C4040B5
:104790004040404000003C3C4242424242424A4A81
:1047A00044443A3A00007C7C424242427C7C484885
:1047B0004444424200003C3C424240403C3C0202F5
:1047C00042423C3C00007C7C101010101010101075
:1047D0001010101000004242424242424242424205
:1047E00042423C3C00004242424242424242424239
:1047F0002424181800004242424242425A5A5A5A4D
:104800006666424200004242424224241818242490
:1048100042424242000044444444282810101010F0
:104820001010101000007E7E0202040418182020D0
:1048300040407E7E00007E7E606060606060606000
:1048400060607E7E000000004040202010100808BC
:104850000404020200007E7E060606060606060620
:1048600006067E7E00000000000010102828444448
:104870000000000000000000000000000000000038
:1048800000007E7E000020201010080800000000BC
:10489000000000000000000000003C3C02023E3E20
:1048A00042423E3E0000404040407C7C4242424208
:1048B00042427C7C0000000000003E3E4040404000
:1048C00040403E3E0000020202023E3E4242424260
:1048D00042423E3E0000000000003C3C42427E7EE0
:1048E00040403E3E00001C1C222220207C7C2020D8
:1048F000202020200000000000003C3C42424242B8
:104900003E3E02023C3C404040407C7C42424242AF
:1049100042424242000010100000303010101010CF
:10492000101038380000040400003C3C0404040467
:10493000040444443838404040404242444478787B
:10494000444442420000303010101010101010107B
:104950001010383800000000000066665A5A5A5A93
:104960005A5A42420000000000007C7C424242420F
:10497000424242420000000000003C3C42424242AF
:1049800042423C3C0000000000007C7C424242422B
:104990007C7C40404040000000003E3E424242429B
:1049A0003E3E02020202000000005E5E6060404087
:1049B000404040400000000000003E3E40403C3C83
:1049C00002027C7C0000101010107C7C1010101073
:1049D00012120C0C0000000000004242424242420F
:1049E00046463A3A0000000000004242424242423B
:1049F00024241818000000000000424242425A5A83
:104A00005A5A66660000000000004242242418182A
:104A1000242442420000000000004242424242423E
:104A20003E3E02023C3C000000007E7E040418185A
:104A300020207E7E00000E0E1818181870701818AE
:104A400018180E0E0000101010101010101010107A
:104A50001010101000007070181818180E0E18188A
:104A600018187070000000000000242454544848B6
:104A700000000000000000000A0B02090C0D0E08E7
:104A80000703040100000000000000000000000017
:104A90000000000000000000000000000000000016
:104AA00000001211100000000000000000000000D3
:104AB00000000000000000000000000011121314AC
:104AC00015160A0B0C0D0E0F000102030405080851
:104AD000205F00000000000000000808080808002F
:104AE0000800141400000000000000247E24247E2E
:104AF0002400107C507C147C100000626408102696
:104B00004600001028102A443A0000081000000057
:104B10000000000810101010080000100808080815
:104B20001000000028107C102800000010107C10DD
:104B300010000000000000080810000000007C00C9
:104B400000000000000000181800000004081020F9
:104B5000400000788C94A4C478000060A02020203D
:104B6000F800007884047880FC00007884180484BD
:104B700078000010305090FC100000FC80F8048495
:104B80007800007880F88484780000FC0408102005
:104B900020000078847884847800007884847C0401
:104BA000780000000010000010000000100000104D
:104BB000102000000810201008000000007C007C7D
:104BC00000000000201008102000003C42040800F3
:104BD0000800003C4A565E403C0000788484FC8417
:104BE000840000F884F88484F8000078848080844D
:104BF000780000F088848488F00000FC80F88080D1
:104C0000FC0000FC80F880808000007884809C8418
:104C10007800008484FC84848400007C10101010D0
:104C20007C000004040484847800008890E090886C
:104C30008400008080808080FC000084CCB4848468
:104C400084000084C4A4948C8400007884848484C8
:104C5000780000F88484F880800000788484A4942C
:104C6000780000F88484F8888400007880780484D0
:104C7000780000FE101010101000008484848484DA
:104C8000780000848484844830000084848484B460
:104C900048000084483030488400008244281010C6
:104CA000100000FC08102040FC00003820202020CC
:104CB00038000000402010080400003808080808E8
:104CC00038000010385410101000000000000000E0
:104CD00000FE3C4299A1A199423C000038043C44AA
:104CE0003C00004040784444780000001C20202014
:104CF0001C000004043C44443C000000384478405C
:104D00003C00000C10181010100000003E42423E03
:104D1000023C004040784444440000080018080861
:104D20001C0000040004040424180040506060507B
:104D300048000010101010100C000000685454546B
:104D40005400000078444444440000003844444483
:104D50003800000078444478404000003C44443C23
:104D6000040600001C2020202000000038403804E9
:104D700078000010381010100C0000004444444427
:104D800038000000444428281000000044545454C3
:104D90002800000044281028440000004444443CFB
:104DA000043800007C0810207C00001C10601010EB
:104DB0001C0000101010101010000070100C1010CB
:104DC000700000142800000000001010205F000098
:104DD00000000000000000000000000000000000D3
:104DE000000000000000000000000000000000C003
:104DF00000C000C000C000C000C000C000C000C0B3
:104E000000C00000000000C000C00000000003302F
:104E100003300330033000000000000000000000F9
:104E20000000000000000000000000000000000082
:104E300000000C300C303FFC3FFC0C300C300C30D0
:104E40000C303FFC3FFC0C300C3000000000030035
:104E500003003FF03FF0330033003FF03FF00330FA
:104E600003303FF03FF003000300000000000000AB
:104E700000003C0C3C0C3C303C3000C000C0030047
:104E800003000C3C0C3C303C303C000000000000B7
:104E90000000030003000CC00CC0030003000CCC96
:104EA0000CCC303030300FCC0FCC000000000000B4
:104EB000000000C000C0030003000000000000006C
:104EC00000000000000000000000000000000000E2
:104ED000000000C000C00300030003000300030043
:104EE00003000300030000C000C000000000000039
:104EF00000000300030000C000C000C000C000C0EC
:104F000000C000C000C0030003000000000000005B
:104F10000000000000000CC00CC0030003003FF0C4
:104F20003FF0030003000CC00CC0000000000000B4
:104F300000000000000003000300030003003FF036
:104F40003FF0030003000300030000000000000026
:104F50000000000000000000000000000000000051
:104F6000000000C000C000C000C00300030000003B
:104F700000000000000000000000000000003FF002
:104F80003FF00000000000000000000000000000F2
:104F90000000000000000000000000000000000011
:104FA000000003C003C003C003C0000000000000F5
:104FB0000000000000000030003000C000C003000E
:104FC00003000C000C003000300000000000000066
:104FD00000003FC03FC0C0F0C0F0C330C330CC3091
:104FE000CC30F030F0303FC03FC000000000000087
:104FF00000003C003C00CC00CC000C000C000C007D
:105000000C000C000C00FFC0FFC0000000000000FE
:1050100000003FC03FC0C030C030003000303FC053
:105020003FC0C000C000FFF0FFF000000000000023
:1050300000003FC03FC0C030C03003C003C00030DC
:105040000030C030C0303FC03FC000000000000052
:105050000000030003000F000F0033003300C30003
:10506000C300FFF0FFF00300030000000000000099
:105070000000FFF0FFF0C000C000FFC0FFC0003024
:105080000030C030C0303FC03FC000000000000012
:1050900000003FC03FC0C000C000FFC0FFC0C03024
:1050A000C030C030C0303FC03FC000000000000032
:1050B0000000FFF0FFF00030003000C000C003002F
:1050C00003000C000C000C000C00000000000000AD
:1050D00000003FC03FC0C030C0303FC03FC0C03004
:1050E000C030C030C0303FC03FC0000000000000F2
:1050F00000003FC03FC0C030C030C030C0303FF0C3
:105100003FF0003000303FC03FC000000000000012
:10511000000000000000000000000180018000008D
:10512000000000000000018001800000000000007D
:105130000000000000000300030000000000000069
:10514000000003000300030003000C000C0000003B
:1051500000000000000000C000C0030003000C00BD
:105160000C000300030000C000C0000000000000AD
:10517000000000000000000000003FF03FF00000D1
:1051800000003FF03FF000000000000000000000C1
:105190000000000000000C000C000300030000C031
:1051A00000C0030003000C000C0000000000000021
:1051B00000000FF00FF0300C300C0030003000C059
:1051C00000C00000000000C000C00000000000009F
:1051D00000000FF00FF030CC30CC333C333C33FCCC
:1051E00033FC300030000FF00FF000000000000032
:1051F00000003FC03FC0C030C030C030C030FFF002
:10520000FFF0C030C030C030C030000000000000EF
:105210000000FFC0FFC0C030C030FFC0FFC0C030C2
:10522000C030C030C030FFC0FFC000000000000030
:1052300000003FC03FC0C030C030C000C000C00050
:10524000C000C030C0303FC03FC0000000000000C0
:105250000000FF00FF00C0C0C0C0C030C030C03080
:10526000C030C0C0C0C0FF00FF0000000000000050
:105270000000FFF0FFF0C000C000FFC0FFC0C00092
:10528000C000C000C000FFF0FFF000000000000000
:105290000000FFF0FFF0C000C000FFC0FFC0C00072
:1052A000C000C000C000C000C0000000000000003E
:1052B00000003FC03FC0C030C030C000C000C3F0DD
:1052C000C3F0C030C0303FC03FC00000000000004D
:1052D0000000C030C030C030C030FFF0FFF0C03040
:1052E000C030C030C030C030C0300000000000000E
:1052F00000003FF03FF00300030003000300030041
:105300000300030003003FF03FF000000000000036
:105310000000003000300030003000300030C0307D
:10532000C030C030C0303FC03FC0000000000000AF
:105330000000C0C0C0C0C300C300FC00FC00C3002C
:10534000C300C0C0C0C0C030C030000000000000BA
:105350000000C000C000C000C000C000C000C0000D
:10536000C000C000C000FFF0FFF00000000000001F
:105370000000C030C030F0F0F0F0CF30CF30C0309F
:10538000C030C030C030C030C0300000000000006D
:105390000000C030C030F030F030CC30CC30C33002
:1053A000C330C0F0C0F0C030C030000000000000CA
:1053B00000003FC03FC0C030C030C030C030C0303F
:1053C000C030C030C0303FC03FC00000000000000F
:1053D0000000FFC0FFC0C030C030C030C030FFC0D0
:1053E000FFC0C000C000C000C000000000000000FE
:1053F00000003FC03FC0C030C030C030C030CC30F3
:10540000CC30C330C3303FC03FC0000000000000BC
:105410000000FFC0FFC0C030C030C030C030FFC08F
:10542000FFC0C0C0C0C0C030C030000000000000DD
:1054300000003FC03FC0C000C0003FC03FC00030C0
:105440000030C030C0303FC03FC00000000000004E
:105450000000FFFCFFFC0300030003000300030047
:10546000030003000300030003000000000000002D
:105470000000C030C030C030C030C030C030C0309C
:10548000C030C030C0303FC03FC00000000000004E
:105490000000C030C030C030C030C030C030C0307C
:1054A000C03030C030C00F000F000000000000000E
:1054B0000000C030C030C030C030C030C030C0305C
:1054C000C030CF30CF3030C030C00000000000000E
:1054D0000000C030C03030C030C00F000F000F00DF
:1054E0000F0030C030C0C030C030000000000000ED
:1054F0000000C00CC00C303030300CC00CC00300B9
:10550000030003000300030003000000000000008C
:105510000000FFF0FFF000C000C0030003000C001B
:105520000C0030003000FFF0FFF000000000000031
:1055300000000FC00FC00C000C000C000C000C0091
:105540000C000C000C000FC00FC000000000000099
:10555000000000000000300030000C000C000300D0
:10556000030000C000C00030003000000000000058
:1055700000000FC00FC000C000C000C000C000C0CD
:1055800000C000C000C00FC00FC00000000000003D
:105590000000030003000FC00FC03330333003009E
:1055A00003000300030003000300000000000000EC
:1055B00000000000000000000000000000000000EB
:1055C00000000000000000000000FFFCFFFC0FF0E6
:1055D0000FF0300C300CC3C3C3C3CC03CC03CC03DB
:1055E000CC03C3C3C3C3300C300C0FF00FF000006A
:1055F0000000000000000FC00FC0003000300FF0AE
:105600000FF0303030300FF00FF0000000000000DD
:10561000000030003000300030003FC03FC030306C
:105620003030303030303FC03FC00000000000005C
:1056300000000000000003F003F00C000C000C0060
:105640000C000C000C0003F003F000000000000050
:10565000000000300030003000300FF00FF030302C
:105660003030303030300FF00FF00000000000001C
:105670000000000000000FC00FC0303030303FC0CD
:105680003FC0300030000FF00FF0000000000000BD
:10569000000000F000F00300030003C003C003009B
:1056A00003000300030003000300000000000000EB
:1056B0000000000000000FFC0FFC300C300C300C20
:1056C000300C0FFC0FFC000C000C0FF00FF0000072
:1056D000000030003000300030003FC03FC03030AC
:1056E00030303030303030303030000000000000DA
:1056F000000000C000C00000000003C003C000C0E4
:1057000000C000C000C003F003F000000000000073
:105710000000003000300000000000300030003099
:105720000030003000300C300C3003C003C00000EB
:10573000000018001800198019801E001E001E00AD
:105740001E00198019801860186000000000000019
:105750000000030003000300030003000300030034
:1057600003000300030000F000F000000000000050
:105770000000000000003CC03CC033303330333008
:10578000333033303330333033300000000000002A
:105790000000000000003FC03FC0303030303030EB
:1057A0003030303030303030303000000000000019
:1057B0000000000000000FC00FC03030303030302B
:1057C0003030303030300FC00FC00000000000001B
:1057D0000000000000003FC03FC0303030303030AB
:1057E00030303FC03FC0300030003000300000009B
:1057F0000000000000000FF00FF03030303030308B
:1058000030300FF00FF000300030003C003C000062
:1058100000000000000003F003F00C000C000C007E
:105820000C000C000C000C000C000000000000003C
:105830000000000000000FC00FC0300030000FC09B
:105840000FC0003000303FC03FC00000000000002B
:105850000000030003000FC00FC00300030003009B
:1058600003000300030000F000F00000000000004F
:105870000000000000003030303030303030303048
:105880003030303030300FC00FC00000000000005A
:1058900000000000000030303030303030300CC0BC
:1058A0000CC00CC00CC0030003000000000000008E
:1058B00000000000000030303030333033303330FF
:1058C0003330333033300CC00CC000000000000017
:1058D000000000000000303030300CC00CC003006D
:1058E00003000CC00CC0303030300000000000005D
:1058F00000000000000030303030303030303030C8
:1059000030300FF00FF0003000300FC00FC000003B
:105910000000000000003FF03FF000C000C00300A6
:1059200003000C000C003FF03FF0000000000000FE
:10593000000003F003F0030003003C003C00030000
:1059400003000300030003F003F000000000000068
:105950000000030003000300030003000300030032
:105960000300030003000300030000000000000028
:1059700000003F003F000300030000F000F00300C0
:105980000300030003003F003F0000000000000090
:105990000000033003300CC00CC000000000000009
:1059A00000000000000000000000000000001020C7
:1059B000205F000000000000000000000000000068
:1059C00000000000000000000000000000000000D7
:1059D00000000000000000000000000000000000C7
:1059E00000000000000000000000000000000000B7
:1059F000000000000000000003C003C003C003C09B
:105A000003C003C003C003C003C003C003C003C07E
:105A100003C003C00180018001800000000000007D
:105A200003C003C003C003C003C0000000000000A7
:105A30000000000000000E1C0E1C1E3C1E381C78CE
:105A40003C783C783C783C783C783C78000000001E
:105A50000000000000000000000000000000000046
:105A60000000000000000000000000000000000036
:105A70000000000000000000038E038E039C039CC6
:105A8000071C071C3FFE7FFF7FFF7FFF0E380E3095
:105A90000E700E700C70FFFCFFFEFFFEFFFC18E0A6
:105AA00038E038E038C039C031C0000000000000E4
:105AB0000000018001800180018003E00FF81FF8E1
:105AC0001FF83D983D803D803D803F801FC01FF006
:105AD0000FF807FC01FC01BC019C019C319C3DFCC2
